:1000000083018B018A017828A000030EA1008301DF
:100010000C1C0C280C10D0168B1C2B28051D20281E
:100020002908820736283F2845284528452845289D
:100030004528452845284B2852285A2862287128E7
:10004000B33081000B118B108316011731288B10F0
:100050008316011331280C1F31280C131E08D900F8
:100060005017210E8300A00E200E0900501CA80A74
:100070000B19A801F63028070318A90A27280B191D
:10008000A90AAA01A801A601272803140B19031025
:10009000A20DA90A272803140B190310A20D2A0A7E
:1000A000A907272800300B190230A9002208A30055
:1000B000AA0A272800300B190230A9002208A40040
:1000C000AA0A27280B1D6B280230A9002208A500C8
:1000D000AA0AD0152728A9012208A5005014D0117A
:1000E0002728A9010B1931282208A6005014272817
:1000F0008501073099000C309F00831628309F003F
:100100001C308500FF239000233095009601990153
:100110008830810041308C0083128C0101309000C6
:10012000203084008001840A60300406031D922878
:10013000D0308B006A22792250183522D01AA220A2
:1001400064009C28D0120B1AA728A9010B1644089A
:1001500003398207AD28BF28C401C601C701DE20CC
:10016000C81CBC284318851443180510431C85106F
:10017000431C0514851985161014C40A08001010B4
:1001800046088F0047088E00E0308E0703188F0A5C
:10019000B1308F07C4011014851C05108518051493
:1001A000481D8512C81CF028FF3040060319F028AE
:1001B0004008031DC00BF028C810F02810103408A8
:1001C0008F0035088E000E08C7070318C60A0F08EF
:1001D000C6078E098F0901308E0703188F0A0800A1
:1001E0004508031DC50B01294308AB007F30AD2234
:1001F00008000130C3063208C000C8146430C500CE
:10020000080085190729CA03CA0B08000D294A08E6
:1002100003190800CA01F920080048151F148516A3
:100220002630CA009F14640085192429D01E132982
:10023000D012CA0B132964008512851D1B29C8150D
:10024000DF01CD1429222829DF01DF14CD14292252
:100250006400D01E7B29E0308E00B1308F00D012B8
:10026000CD0B3D290830CD000310CE1B0314CF0D5C
:10027000CE0D031C851203188516501F7B295013C1
:10028000BE30590203185929DA0196305902031871
:1002900068297330590203186F295A30590203181C
:1002A0007529DA01DB01DC01DD015E10DE105E1173
:1002B0007A290314DA0D5A1E7A295B1A5E145C1A25
:1002C000DE145D1A5E15DA01DB01DC01DD017A293D
:1002D0005C1A7A295D1A7A290314DB0D7A295D1AD2
:1002E0007A29DB010314DC0D7A29DB01DC0103141C
:1002F000DD0D7A299F14CC0B96294C150310851916
:1003000003144B0DCB00C03A031D96295F08031957
:100310008F29DF1CDF0ADF0A29225F1D28299F1091
:100320008512C81148111F100B160800DF18D029BC
:10033000DE105E105E1DA2295E118130D500F830FE
:10034000D600192A501C28292308D5002408D600D5
:100350002508D7002608D80050100B12550856065D
:1003600057065806031D272A5508C039803AD61B60
:10037000031D272AD61D272ADF1C192AD503550D50
:10038000D300530DFC39D300560C0339D304530A60
:10039000AB005F08AD226A22C8143208C0008F2962
:1003A0005F1CF0295E1CDB29B43033020319EC29F1
:1003B00014303307E729DE1CE42914303302031913
:1003C000EC2914303302E7295E1DEC296430B300B8
:1003D000AB005F08AD2281225E10DE105E1128297D
:1003E0005E1CFF29FF3032020319152A7D303202CC
:1003F0000319FD2919303207112AFF30112ADE1C9A
:100400000E2AFF30320203190C2A19303202031966
:10041000152A19303202112A7D30112A5E1D152A43
:100420001930B200AB005F08AD225E10DE105E1125
:1004300028295508AB000030AD225608FE39AB0024
:100440000130AD226A22C8143208C0008F290B1671
:100450002829DF1C312AA0305F18A830CE00CF0039
:100460000800F030CE00CF00080050100B12230817
:10047000240625062606031D672A23080319612A78
:10048000C039803A031D672A452AD0133008230655
:10049000031D5D2A31082406031D512A43185D2AD5
:1004A000562A013A031D5D2A431C5D2A0130C3060A
:1004B0003208C000C8146430C5005E2AD0130B1681
:1004C00008002408031D672AD0170B160800D01354
:1004D0000B160800303084000030AC002C08A72236
:1004E0008000333004060319782A840AAC0A6E2A85
:1004F00008007F30A722C30081223208C000C81440
:1005000008003308D300D4010310D30DD40D031019
:10051000D30DD40D5308B5005408B4000310D30D07
:10052000D40D0310D30DD40D0310D30DD40D5308E7
:10053000B5070318B40A5408B4070310D30DD40D3B
:100540005308B5070318B40A5408B4070800831603
:100550009B001C141A0883120800A7222B060319FB
:1005600008002B0883169A001C158B1355309D002C
:10057000AA309D009C148B171C119C18BD2A831255
:02058000080071
:02400E00DC3F95
:084200008100F80019006400C0
:1042400020344D346F3474346F347234203420345D
:10425000203450346F3469346E3474342034203454
:10426000413472346B34613464346934753473347A
:104270007A3420344834613468346E342034323433
:0E42800030342F34303432342F34313436346D
:0242FE000000BE
:00000001FF
